{
  "_format": "hh-sol-artifact-1",
  "contractName": "EventEscrow",
  "sourceName": "contracts/EventEscrow.sol",
  "abi": [
    {
      "inputs": [
        {
          "internalType": "address",
          "name": "_platformWallet",
          "type": "address"
        }
      ],
      "stateMutability": "nonpayable",
      "type": "constructor"
    },
    {
      "inputs": [
        {
          "internalType": "address",
          "name": "owner",
          "type": "address"
        }
      ],
      "name": "OwnableInvalidOwner",
      "type": "error"
    },
    {
      "inputs": [
        {
          "internalType": "address",
          "name": "account",
          "type": "address"
        }
      ],
      "name": "OwnableUnauthorizedAccount",
      "type": "error"
    },
    {
      "inputs": [],
      "name": "ReentrancyGuardReentrantCall",
      "type": "error"
    },
    {
      "anonymous": false,
      "inputs": [
        {
          "indexed": true,
          "internalType": "uint256",
          "name": "escrowId",
          "type": "uint256"
        },
        {
          "indexed": true,
          "internalType": "address",
          "name": "host",
          "type": "address"
        },
        {
          "indexed": true,
          "internalType": "address",
          "name": "organizer",
          "type": "address"
        }
      ],
      "name": "EscrowCreated",
      "type": "event"
    },
    {
      "anonymous": false,
      "inputs": [
        {
          "indexed": true,
          "internalType": "uint256",
          "name": "escrowId",
          "type": "uint256"
        },
        {
          "indexed": false,
          "internalType": "uint256",
          "name": "amount",
          "type": "uint256"
        }
      ],
      "name": "EscrowReleased",
      "type": "event"
    },
    {
      "anonymous": false,
      "inputs": [
        {
          "indexed": true,
          "internalType": "address",
          "name": "previousOwner",
          "type": "address"
        },
        {
          "indexed": true,
          "internalType": "address",
          "name": "newOwner",
          "type": "address"
        }
      ],
      "name": "OwnershipTransferred",
      "type": "event"
    },
    {
      "inputs": [
        {
          "internalType": "uint256",
          "name": "_escrowId",
          "type": "uint256"
        },
        {
          "internalType": "address[]",
          "name": "_gigs",
          "type": "address[]"
        }
      ],
      "name": "addGigWorkers",
      "outputs": [],
      "stateMutability": "nonpayable",
      "type": "function"
    },
    {
      "inputs": [
        {
          "internalType": "uint256",
          "name": "_escrowId",
          "type": "uint256"
        }
      ],
      "name": "approveCompletion",
      "outputs": [],
      "stateMutability": "nonpayable",
      "type": "function"
    },
    {
      "inputs": [
        {
          "internalType": "address",
          "name": "_organizer",
          "type": "address"
        },
        {
          "internalType": "uint256",
          "name": "_organizerPercentage",
          "type": "uint256"
        },
        {
          "internalType": "uint256",
          "name": "_gigsPercentage",
          "type": "uint256"
        },
        {
          "internalType": "uint256",
          "name": "_platformFeePercentage",
          "type": "uint256"
        },
        {
          "internalType": "uint256",
          "name": "_eventId",
          "type": "uint256"
        }
      ],
      "name": "createEscrow",
      "outputs": [],
      "stateMutability": "payable",
      "type": "function"
    },
    {
      "inputs": [],
      "name": "escrowCounter",
      "outputs": [
        {
          "internalType": "uint256",
          "name": "",
          "type": "uint256"
        }
      ],
      "stateMutability": "view",
      "type": "function"
    },
    {
      "inputs": [
        {
          "internalType": "uint256",
          "name": "",
          "type": "uint256"
        }
      ],
      "name": "escrows",
      "outputs": [
        {
          "internalType": "address",
          "name": "host",
          "type": "address"
        },
        {
          "internalType": "address",
          "name": "organizer",
          "type": "address"
        },
        {
          "internalType": "uint256",
          "name": "totalAmount",
          "type": "uint256"
        },
        {
          "internalType": "uint256",
          "name": "organizerPercentage",
          "type": "uint256"
        },
        {
          "internalType": "uint256",
          "name": "gigsPercentage",
          "type": "uint256"
        },
        {
          "internalType": "uint256",
          "name": "platformFeePercentage",
          "type": "uint256"
        },
        {
          "internalType": "enum EventEscrow.EscrowStatus",
          "name": "status",
          "type": "uint8"
        },
        {
          "internalType": "bool",
          "name": "hostApproved",
          "type": "bool"
        },
        {
          "internalType": "bool",
          "name": "organizerApproved",
          "type": "bool"
        },
        {
          "internalType": "uint256",
          "name": "createdAt",
          "type": "uint256"
        },
        {
          "internalType": "uint256",
          "name": "eventId",
          "type": "uint256"
        }
      ],
      "stateMutability": "view",
      "type": "function"
    },
    {
      "inputs": [
        {
          "internalType": "uint256",
          "name": "",
          "type": "uint256"
        },
        {
          "internalType": "uint256",
          "name": "",
          "type": "uint256"
        }
      ],
      "name": "eventGigs",
      "outputs": [
        {
          "internalType": "address",
          "name": "",
          "type": "address"
        }
      ],
      "stateMutability": "view",
      "type": "function"
    },
    {
      "inputs": [
        {
          "internalType": "uint256",
          "name": "_escrowId",
          "type": "uint256"
        }
      ],
      "name": "getEscrow",
      "outputs": [
        {
          "components": [
            {
              "internalType": "address",
              "name": "host",
              "type": "address"
            },
            {
              "internalType": "address",
              "name": "organizer",
              "type": "address"
            },
            {
              "internalType": "uint256",
              "name": "totalAmount",
              "type": "uint256"
            },
            {
              "internalType": "uint256",
              "name": "organizerPercentage",
              "type": "uint256"
            },
            {
              "internalType": "uint256",
              "name": "gigsPercentage",
              "type": "uint256"
            },
            {
              "internalType": "uint256",
              "name": "platformFeePercentage",
              "type": "uint256"
            },
            {
              "internalType": "enum EventEscrow.EscrowStatus",
              "name": "status",
              "type": "uint8"
            },
            {
              "internalType": "bool",
              "name": "hostApproved",
              "type": "bool"
            },
            {
              "internalType": "bool",
              "name": "organizerApproved",
              "type": "bool"
            },
            {
              "internalType": "uint256",
              "name": "createdAt",
              "type": "uint256"
            },
            {
              "internalType": "uint256",
              "name": "eventId",
              "type": "uint256"
            }
          ],
          "internalType": "struct EventEscrow.Escrow",
          "name": "",
          "type": "tuple"
        }
      ],
      "stateMutability": "view",
      "type": "function"
    },
    {
      "inputs": [],
      "name": "owner",
      "outputs": [
        {
          "internalType": "address",
          "name": "",
          "type": "address"
        }
      ],
      "stateMutability": "view",
      "type": "function"
    },
    {
      "inputs": [],
      "name": "platformWallet",
      "outputs": [
        {
          "internalType": "address",
          "name": "",
          "type": "address"
        }
      ],
      "stateMutability": "view",
      "type": "function"
    },
    {
      "inputs": [],
      "name": "renounceOwnership",
      "outputs": [],
      "stateMutability": "nonpayable",
      "type": "function"
    },
    {
      "inputs": [
        {
          "internalType": "address",
          "name": "newOwner",
          "type": "address"
        }
      ],
      "name": "transferOwnership",
      "outputs": [],
      "stateMutability": "nonpayable",
      "type": "function"
    }
  ],
  "bytecode": "0x608060405234801561001057600080fd5b5060405161105d38038061105d83398101604081905261002f916100db565b6001600055338061005a57604051631e4fbdf760e01b81526000600482015260240160405180910390fd5b61006381610089565b50600580546001600160a01b0319166001600160a01b039290921691909117905561010b565b600180546001600160a01b038381166001600160a01b0319831681179093556040519116919082907f8be0079c531659141344cd1fd0a4f28419497f9722a3daafe3b4186f6b6457e090600090a35050565b6000602082840312156100ed57600080fd5b81516001600160a01b038116811461010457600080fd5b9392505050565b610f438061011a6000396000f3fe60806040526004361061009c5760003560e01c806393a5bc411161006457806393a5bc41146101d457806399554d6c146101f4578063b60232d914610214578063c7ceafea14610234578063f2fde38b14610258578063fa2af9da1461027857600080fd5b8063012f52ee146100a1578063085887001461014b578063715018a6146101605780637d19e596146101755780638da5cb5b146101a2575b600080fd5b3480156100ad57600080fd5b5061012b6100bc366004610b88565b60026020819052600091825260409091208054600182015492820154600383015460048401546005850154600686015460078701546008909701546001600160a01b039687169890961696949593949293919260ff80831693610100840482169362010000900490911691908b565b6040516101429b9a99989796959493929190610bd9565b60405180910390f35b61015e610159366004610c63565b610298565b005b34801561016c57600080fd5b5061015e6104ce565b34801561018157600080fd5b50610195610190366004610b88565b6104e2565b6040516101429190610ca5565b3480156101ae57600080fd5b506001546001600160a01b03165b6040516001600160a01b039091168152602001610142565b3480156101e057600080fd5b5061015e6101ef366004610b88565b6105bd565b34801561020057600080fd5b506101bc61020f366004610d4b565b6106aa565b34801561022057600080fd5b5061015e61022f366004610d83565b6106e2565b34801561024057600080fd5b5061024a60045481565b604051908152602001610142565b34801561026457600080fd5b5061015e610273366004610e54565b61076f565b34801561028457600080fd5b506005546101bc906001600160a01b031681565b6102a06107ad565b816102ab8486610e8c565b6102b59190610e8c565b6064146103095760405162461bcd60e51b815260206004820152601b60248201527f50657263656e7461676573206d7573742073756d20746f20313030000000000060448201526064015b60405180910390fd5b600480546000918261031a83610ea5565b919050559050604051806101600160405280336001600160a01b03168152602001876001600160a01b031681526020013481526020018681526020018581526020018481526020016001600481111561037557610375610ba1565b8152600060208083018290526040808401839052426060808601919091526080948501889052868452600280845293829020865181546001600160a01b039182166001600160a01b03199182161783559488015160018381018054929093169190961617905591860151938201939093559184015160038301559183015160048083019190915560a0840151600583015560c084015160068301805493949193909260ff199091169190849081111561043057610430610ba1565b021790555060e0820151600682018054610100808601511515620100000262ff0000199415159091029390931662ffff0019909116179190911790556101208201516007820155610140909101516008909101556040516001600160a01b03871690339083907fcc50a4e95294d36f3e612eabd37417678a3c52eb30d18039a0b2ed5cff4cfc0f90600090a4506104c76001600055565b5050505050565b6104d66107d7565b6104e06000610804565b565b6104ea610a91565b60008281526002602081815260409283902083516101608101855281546001600160a01b039081168252600183015416928101929092529182015492810192909252600381015460608301526004808201546080840152600582015460a0840152600682015460c084019160ff9091169081111561056a5761056a610ba1565b600481111561057b5761057b610ba1565b8152600682015460ff61010082048116151560208401526201000090910416151560408201526007820154606082015260089091015460809091015292915050565b600081815260026020526040902080546001600160a01b03163314806105ef575060018101546001600160a01b031633145b61062a5760405162461bcd60e51b815260206004820152600c60248201526b155b985d5d1a1bdc9a5e995960a21b6044820152606401610300565b80546001600160a01b0316330361064d5760068101805461ff0019166101001790555b60018101546001600160a01b031633036106755760068101805462ff00001916620100001790555b6006810154610100900460ff1680156106985750600681015462010000900460ff165b156106a6576106a682610856565b5050565b600360205281600052604060002081815481106106c657600080fd5b6000918252602090912001546001600160a01b03169150829050565b600082815260026020526040902060018101546001600160a01b0316331461073d5760405162461bcd60e51b815260206004820152600e60248201526d27b7363c9037b933b0b734bd32b960911b6044820152606401610300565b6000838152600360209081526040909120835161075c92850190610b0e565b50600601805460ff191660021790555050565b6107776107d7565b6001600160a01b0381166107a157604051631e4fbdf760e01b815260006004820152602401610300565b6107aa81610804565b50565b6002600054036107d057604051633ee5aeb560e01b815260040160405180910390fd5b6002600055565b6001546001600160a01b031633146104e05760405163118cdaa760e01b8152336004820152602401610300565b600180546001600160a01b038381166001600160a01b0319831681179093556040519116919082907f8be0079c531659141344cd1fd0a4f28419497f9722a3daafe3b4186f6b6457e090600090a35050565b6000818152600260208190526040822060038101549181015490929160649161087f9190610ebe565b6108899190610ed5565b905060006064836004015484600201546108a39190610ebe565b6108ad9190610ed5565b905060006064846005015485600201546108c79190610ebe565b6108d19190610ed5565b60018501546040519192506001600160a01b03169084156108fc029085906000818181858888f1935050505015801561090e573d6000803e3d6000fd5b506005546040516001600160a01b039091169082156108fc029083906000818181858888f19350505050158015610949573d6000803e3d6000fd5b506000858152600360209081526040808320805482518185028101850190935280835291929091908301828280156109aa57602002820191906000526020600020905b81546001600160a01b0316815260019091019060200180831161098c575b50505050509050600081511115610a405760008151846109ca9190610ed5565b905060005b8251811015610a3d578281815181106109ea576109ea610ef7565b60200260200101516001600160a01b03166108fc839081150290604051600060405180830381858888f19350505050158015610a2a573d6000803e3d6000fd5b5080610a3581610ea5565b9150506109cf565b50505b60068501805460ff19166003179055600285015460405190815286907f10ce17ae7e78eb775b13182ea618b201c2c81afc8fee55c287291f8686f17eac9060200160405180910390a2505050505050565b60405180610160016040528060006001600160a01b0316815260200160006001600160a01b031681526020016000815260200160008152602001600081526020016000815260200160006004811115610aec57610aec610ba1565b8152600060208201819052604082018190526060820181905260809091015290565b828054828255906000526020600020908101928215610b63579160200282015b82811115610b6357825182546001600160a01b0319166001600160a01b03909116178255602090920191600190910190610b2e565b50610b6f929150610b73565b5090565b5b80821115610b6f5760008155600101610b74565b600060208284031215610b9a57600080fd5b5035919050565b634e487b7160e01b600052602160045260246000fd5b60058110610bd557634e487b7160e01b600052602160045260246000fd5b9052565b6001600160a01b038c811682528b166020820152604081018a9052606081018990526080810188905260a081018790526101608101610c1b60c0830188610bb7565b94151560e082015292151561010084015261012083019190915261014090910152979650505050505050565b80356001600160a01b0381168114610c5e57600080fd5b919050565b600080600080600060a08688031215610c7b57600080fd5b610c8486610c47565b97602087013597506040870135966060810135965060800135945092505050565b81516001600160a01b0316815261016081016020830151610cd160208401826001600160a01b03169052565b5060408301516040830152606083015160608301526080830151608083015260a083015160a083015260c0830151610d0c60c0840182610bb7565b5060e0830151610d2060e084018215159052565b5061010083810151151590830152610120808401519083015261014092830151929091019190915290565b60008060408385031215610d5e57600080fd5b50508035926020909101359150565b634e487b7160e01b600052604160045260246000fd5b60008060408385031215610d9657600080fd5b8235915060208084013567ffffffffffffffff80821115610db657600080fd5b818601915086601f830112610dca57600080fd5b813581811115610ddc57610ddc610d6d565b8060051b604051601f19603f83011681018181108582111715610e0157610e01610d6d565b604052918252848201925083810185019189831115610e1f57600080fd5b938501935b82851015610e4457610e3585610c47565b84529385019392850192610e24565b8096505050505050509250929050565b600060208284031215610e6657600080fd5b610e6f82610c47565b9392505050565b634e487b7160e01b600052601160045260246000fd5b80820180821115610e9f57610e9f610e76565b92915050565b600060018201610eb757610eb7610e76565b5060010190565b8082028115828204841417610e9f57610e9f610e76565b600082610ef257634e487b7160e01b600052601260045260246000fd5b500490565b634e487b7160e01b600052603260045260246000fdfea26469706673582212200538cbf37dcc05c1c80eadb011689b7d8ce284c295c69cd08867a552b35fdc6964736f6c63430008140033",
  "linkReferences": {},
  "deployedLinkReferences": {}
}