{
  "_format": "hh-sol-artifact-1",
  "contractName": "ReputationSystem",
  "sourceName": "contracts/ReputationSystem.sol",
  "abi": [
    {
      "inputs": [],
      "stateMutability": "nonpayable",
      "type": "constructor"
    },
    {
      "inputs": [
        {
          "internalType": "address",
          "name": "owner",
          "type": "address"
        }
      ],
      "name": "OwnableInvalidOwner",
      "type": "error"
    },
    {
      "inputs": [
        {
          "internalType": "address",
          "name": "account",
          "type": "address"
        }
      ],
      "name": "OwnableUnauthorizedAccount",
      "type": "error"
    },
    {
      "anonymous": false,
      "inputs": [
        {
          "indexed": true,
          "internalType": "address",
          "name": "previousOwner",
          "type": "address"
        },
        {
          "indexed": true,
          "internalType": "address",
          "name": "newOwner",
          "type": "address"
        }
      ],
      "name": "OwnershipTransferred",
      "type": "event"
    },
    {
      "anonymous": false,
      "inputs": [
        {
          "indexed": true,
          "internalType": "address",
          "name": "reviewer",
          "type": "address"
        },
        {
          "indexed": true,
          "internalType": "address",
          "name": "reviewee",
          "type": "address"
        },
        {
          "indexed": false,
          "internalType": "uint8",
          "name": "rating",
          "type": "uint8"
        }
      ],
      "name": "ReviewSubmitted",
      "type": "event"
    },
    {
      "inputs": [
        {
          "internalType": "address",
          "name": "_user",
          "type": "address"
        }
      ],
      "name": "getReputation",
      "outputs": [
        {
          "internalType": "uint256",
          "name": "",
          "type": "uint256"
        },
        {
          "internalType": "uint256",
          "name": "",
          "type": "uint256"
        },
        {
          "internalType": "uint8",
          "name": "",
          "type": "uint8"
        }
      ],
      "stateMutability": "view",
      "type": "function"
    },
    {
      "inputs": [],
      "name": "owner",
      "outputs": [
        {
          "internalType": "address",
          "name": "",
          "type": "address"
        }
      ],
      "stateMutability": "view",
      "type": "function"
    },
    {
      "inputs": [],
      "name": "renounceOwnership",
      "outputs": [],
      "stateMutability": "nonpayable",
      "type": "function"
    },
    {
      "inputs": [
        {
          "internalType": "address",
          "name": "",
          "type": "address"
        }
      ],
      "name": "reputationScores",
      "outputs": [
        {
          "internalType": "uint256",
          "name": "totalRating",
          "type": "uint256"
        },
        {
          "internalType": "uint256",
          "name": "reviewCount",
          "type": "uint256"
        },
        {
          "internalType": "uint8",
          "name": "trustLevel",
          "type": "uint8"
        },
        {
          "internalType": "uint256",
          "name": "lastUpdated",
          "type": "uint256"
        }
      ],
      "stateMutability": "view",
      "type": "function"
    },
    {
      "inputs": [
        {
          "internalType": "bytes32",
          "name": "",
          "type": "bytes32"
        }
      ],
      "name": "reviewExists",
      "outputs": [
        {
          "internalType": "bool",
          "name": "",
          "type": "bool"
        }
      ],
      "stateMutability": "view",
      "type": "function"
    },
    {
      "inputs": [
        {
          "internalType": "uint256",
          "name": "",
          "type": "uint256"
        }
      ],
      "name": "reviews",
      "outputs": [
        {
          "internalType": "address",
          "name": "reviewer",
          "type": "address"
        },
        {
          "internalType": "address",
          "name": "reviewee",
          "type": "address"
        },
        {
          "internalType": "uint8",
          "name": "rating",
          "type": "uint8"
        },
        {
          "internalType": "string",
          "name": "reviewText",
          "type": "string"
        },
        {
          "internalType": "uint256",
          "name": "eventId",
          "type": "uint256"
        },
        {
          "internalType": "uint256",
          "name": "timestamp",
          "type": "uint256"
        },
        {
          "internalType": "string",
          "name": "reviewType",
          "type": "string"
        }
      ],
      "stateMutability": "view",
      "type": "function"
    },
    {
      "inputs": [
        {
          "internalType": "address",
          "name": "_reviewee",
          "type": "address"
        },
        {
          "internalType": "uint8",
          "name": "_rating",
          "type": "uint8"
        },
        {
          "internalType": "string",
          "name": "_reviewText",
          "type": "string"
        },
        {
          "internalType": "uint256",
          "name": "_eventId",
          "type": "uint256"
        },
        {
          "internalType": "string",
          "name": "_reviewType",
          "type": "string"
        }
      ],
      "name": "submitReview",
      "outputs": [],
      "stateMutability": "nonpayable",
      "type": "function"
    },
    {
      "inputs": [
        {
          "internalType": "address",
          "name": "newOwner",
          "type": "address"
        }
      ],
      "name": "transferOwnership",
      "outputs": [],
      "stateMutability": "nonpayable",
      "type": "function"
    }
  ],
  "bytecode": "0x608060405234801561001057600080fd5b50338061003757604051631e4fbdf760e01b81526000600482015260240160405180910390fd5b61004081610046565b50610096565b600080546001600160a01b038381166001600160a01b0319831681178455604051919092169283917f8be0079c531659141344cd1fd0a4f28419497f9722a3daafe3b4186f6b6457e09190a35050565b610c7c806100a56000396000f3fe608060405234801561001057600080fd5b50600436106100885760003560e01c8063e83ddcea1161005b578063e83ddcea146100fb578063f0d0f8df14610121578063f2fde38b14610154578063fe0438b21461016757600080fd5b806327640ec21461008d578063715018a6146100a25780638da5cb5b146100aa5780639c89a0e2146100ca575b600080fd5b6100a061009b366004610922565b6101c9565b005b6100a061047a565b6000546040516001600160a01b0390911681526020015b60405180910390f35b6100dd6100d83660046109b9565b61048e565b60408051938452602084019290925260ff16908201526060016100c1565b61010e6101093660046109db565b61051d565b6040516100c19796959493929190610a3a565b61014461012f3660046109db565b60026020526000908152604090205460ff1681565b60405190151581526020016100c1565b6100a06101623660046109b9565b61068d565b6101a06101753660046109b9565b60016020819052600091825260409091208054918101546002820154600390920154909160ff169084565b6040516100c19493929190938452602084019290925260ff166040830152606082015260800190565b60018460ff16101580156101e1575060058460ff1611155b6102275760405162461bcd60e51b8152602060048201526012602482015271526174696e67206d75737420626520312d3560701b60448201526064015b60405180910390fd5b6040516bffffffffffffffffffffffff1933606090811b8216602084015287901b1660348201526048810183905260009060680160408051601f1981840301815291815281516020928301206000818152600290935291205490915060ff16156102cb5760405162461bcd60e51b815260206004820152601560248201527452657669657720616c72656164792065786973747360581b604482015260640161021e565b6040805160e0810182523381526001600160a01b038881166020830190815260ff808a1694840194855260608401898152608085018990524260a086015260c0850188905260038054600181018255600091909152855160069091027fc2575a0e9e593c00f959f8c92f12db2869c3395a3b0502d05e2516446f71f85b810180549287166001600160a01b031990931692909217825593517fc2575a0e9e593c00f959f8c92f12db2869c3395a3b0502d05e2516446f71f85c850180549851909416600160a01b026001600160a81b03199098169516949094179590951790559251919290917fc2575a0e9e593c00f959f8c92f12db2869c3395a3b0502d05e2516446f71f85d909101906103e09082610b24565b506080820151600382015560a0820151600482015560c082015160058201906104099082610b24565b5050506000818152600260205260409020805460ff1916600117905561042f86866106cb565b60405160ff861681526001600160a01b0387169033907f71fc513821ecba20b382cf39c0ece746c22cec23ca4cf79bc5822461e33d13f59060200160405180910390a3505050505050565b61048261076c565b61048c6000610799565b565b6001600160a01b038116600090815260016020818152604080842081516080810183528154815293810154928401839052600281015460ff16918401919091526003015460608301528291829182906104e8576000610504565b602082015182516104fa90600a610bfa565b6105049190610c11565b6020830151604090930151909792965094509092505050565b6003818154811061052d57600080fd5b60009182526020909120600690910201805460018201546002830180546001600160a01b03938416955092821693600160a01b90920460ff169261057090610a9b565b80601f016020809104026020016040519081016040528092919081815260200182805461059c90610a9b565b80156105e95780601f106105be576101008083540402835291602001916105e9565b820191906000526020600020905b8154815290600101906020018083116105cc57829003601f168201915b50505050509080600301549080600401549080600501805461060a90610a9b565b80601f016020809104026020016040519081016040528092919081815260200182805461063690610a9b565b80156106835780601f1061065857610100808354040283529160200191610683565b820191906000526020600020905b81548152906001019060200180831161066657829003601f168201915b5050505050905087565b61069561076c565b6001600160a01b0381166106bf57604051631e4fbdf760e01b81526000600482015260240161021e565b6106c881610799565b50565b6001600160a01b03821660009081526001602052604081208054909160ff8416918391906106fa908490610c33565b909155505060018181018054600090610714908490610c33565b9091555050426003820155600181015481546000919061073590600a610bfa565b61073f9190610c11565b905061074f8183600101546107e9565b600292909201805460ff191660ff90931692909217909155505050565b6000546001600160a01b0316331461048c5760405163118cdaa760e01b815233600482015260240161021e565b600080546001600160a01b038381166001600160a01b0319831681178455604051919092169283917f8be0079c531659141344cd1fd0a4f28419497f9722a3daafe3b4186f6b6457e09190a35050565b600060058210156107fc5750600061085d565b6030831015801561080e575060648210155b1561081b5750600461085d565b602d831015801561082d575060328210155b1561083a5750600361085d565b6028831015801561084c575060148210155b156108595750600261085d565b5060015b92915050565b80356001600160a01b038116811461087a57600080fd5b919050565b634e487b7160e01b600052604160045260246000fd5b600082601f8301126108a657600080fd5b813567ffffffffffffffff808211156108c1576108c161087f565b604051601f8301601f19908116603f011681019082821181831017156108e9576108e961087f565b8160405283815286602085880101111561090257600080fd5b836020870160208301376000602085830101528094505050505092915050565b600080600080600060a0868803121561093a57600080fd5b61094386610863565b9450602086013560ff8116811461095957600080fd5b9350604086013567ffffffffffffffff8082111561097657600080fd5b61098289838a01610895565b945060608801359350608088013591508082111561099f57600080fd5b506109ac88828901610895565b9150509295509295909350565b6000602082840312156109cb57600080fd5b6109d482610863565b9392505050565b6000602082840312156109ed57600080fd5b5035919050565b6000815180845260005b81811015610a1a576020818501810151868301820152016109fe565b506000602082860101526020601f19601f83011685010191505092915050565b6001600160a01b0388811682528716602082015260ff8616604082015260e060608201819052600090610a6f908301876109f4565b8560808401528460a084015282810360c0840152610a8d81856109f4565b9a9950505050505050505050565b600181811c90821680610aaf57607f821691505b602082108103610acf57634e487b7160e01b600052602260045260246000fd5b50919050565b601f821115610b1f57600081815260208120601f850160051c81016020861015610afc5750805b601f850160051c820191505b81811015610b1b57828155600101610b08565b5050505b505050565b815167ffffffffffffffff811115610b3e57610b3e61087f565b610b5281610b4c8454610a9b565b84610ad5565b602080601f831160018114610b875760008415610b6f5750858301515b600019600386901b1c1916600185901b178555610b1b565b600085815260208120601f198616915b82811015610bb657888601518255948401946001909101908401610b97565b5085821015610bd45787850151600019600388901b60f8161c191681555b5050505050600190811b01905550565b634e487b7160e01b600052601160045260246000fd5b808202811582820484141761085d5761085d610be4565b600082610c2e57634e487b7160e01b600052601260045260246000fd5b500490565b8082018082111561085d5761085d610be456fea26469706673582212209ffd2edbf04ccbd2addb60897012d98e9e2ba6fed20742f59f2559ffcb3136da64736f6c63430008140033",
  "linkReferences": {},
  "deployedLinkReferences": {}
}