{
  "_format": "hh-sol-artifact-1",
  "contractName": "UniversalGigIdentity",
  "sourceName": "contracts/UniversalGigIdentity.sol",
  "abi": [
    {
      "inputs": [],
      "stateMutability": "nonpayable",
      "type": "constructor"
    },
    {
      "inputs": [
        {
          "internalType": "address",
          "name": "owner",
          "type": "address"
        }
      ],
      "name": "OwnableInvalidOwner",
      "type": "error"
    },
    {
      "inputs": [
        {
          "internalType": "address",
          "name": "account",
          "type": "address"
        }
      ],
      "name": "OwnableUnauthorizedAccount",
      "type": "error"
    },
    {
      "inputs": [],
      "name": "ReentrancyGuardReentrantCall",
      "type": "error"
    },
    {
      "anonymous": false,
      "inputs": [
        {
          "indexed": true,
          "internalType": "address",
          "name": "previousOwner",
          "type": "address"
        },
        {
          "indexed": true,
          "internalType": "address",
          "name": "newOwner",
          "type": "address"
        }
      ],
      "name": "OwnershipTransferred",
      "type": "event"
    },
    {
      "anonymous": false,
      "inputs": [
        {
          "indexed": true,
          "internalType": "address",
          "name": "user",
          "type": "address"
        },
        {
          "indexed": false,
          "internalType": "string",
          "name": "universalId",
          "type": "string"
        },
        {
          "indexed": false,
          "internalType": "uint256",
          "name": "timestamp",
          "type": "uint256"
        }
      ],
      "name": "ProfileCreated",
      "type": "event"
    },
    {
      "anonymous": false,
      "inputs": [
        {
          "indexed": true,
          "internalType": "address",
          "name": "user",
          "type": "address"
        },
        {
          "indexed": false,
          "internalType": "string",
          "name": "newProfileHash",
          "type": "string"
        },
        {
          "indexed": false,
          "internalType": "uint256",
          "name": "timestamp",
          "type": "uint256"
        }
      ],
      "name": "ProfileUpdated",
      "type": "event"
    },
    {
      "anonymous": false,
      "inputs": [
        {
          "indexed": true,
          "internalType": "address",
          "name": "user",
          "type": "address"
        },
        {
          "indexed": false,
          "internalType": "uint256",
          "name": "timestamp",
          "type": "uint256"
        }
      ],
      "name": "ProfileVerified",
      "type": "event"
    },
    {
      "anonymous": false,
      "inputs": [
        {
          "indexed": true,
          "internalType": "address",
          "name": "user",
          "type": "address"
        },
        {
          "indexed": false,
          "internalType": "uint256",
          "name": "newScore",
          "type": "uint256"
        },
        {
          "indexed": false,
          "internalType": "uint256",
          "name": "timestamp",
          "type": "uint256"
        }
      ],
      "name": "ReputationUpdated",
      "type": "event"
    },
    {
      "inputs": [
        {
          "internalType": "address",
          "name": "",
          "type": "address"
        }
      ],
      "name": "blacklisted",
      "outputs": [
        {
          "internalType": "bool",
          "name": "",
          "type": "bool"
        }
      ],
      "stateMutability": "view",
      "type": "function"
    },
    {
      "inputs": [
        {
          "internalType": "string",
          "name": "_universalId",
          "type": "string"
        },
        {
          "internalType": "string",
          "name": "_profileHash",
          "type": "string"
        }
      ],
      "name": "createGigProfile",
      "outputs": [],
      "stateMutability": "nonpayable",
      "type": "function"
    },
    {
      "inputs": [
        {
          "internalType": "address",
          "name": "_user",
          "type": "address"
        }
      ],
      "name": "getProfile",
      "outputs": [
        {
          "components": [
            {
              "internalType": "string",
              "name": "universalId",
              "type": "string"
            },
            {
              "internalType": "string",
              "name": "profileHash",
              "type": "string"
            },
            {
              "internalType": "uint256",
              "name": "reputationScore",
              "type": "uint256"
            },
            {
              "internalType": "bool",
              "name": "isVerified",
              "type": "bool"
            },
            {
              "internalType": "bool",
              "name": "isActive",
              "type": "bool"
            },
            {
              "internalType": "uint256",
              "name": "createdAt",
              "type": "uint256"
            },
            {
              "internalType": "uint256",
              "name": "lastUpdated",
              "type": "uint256"
            }
          ],
          "internalType": "struct UniversalGigIdentity.GigProfile",
          "name": "",
          "type": "tuple"
        }
      ],
      "stateMutability": "view",
      "type": "function"
    },
    {
      "inputs": [
        {
          "internalType": "address",
          "name": "",
          "type": "address"
        }
      ],
      "name": "gigProfiles",
      "outputs": [
        {
          "internalType": "string",
          "name": "universalId",
          "type": "string"
        },
        {
          "internalType": "string",
          "name": "profileHash",
          "type": "string"
        },
        {
          "internalType": "uint256",
          "name": "reputationScore",
          "type": "uint256"
        },
        {
          "internalType": "bool",
          "name": "isVerified",
          "type": "bool"
        },
        {
          "internalType": "bool",
          "name": "isActive",
          "type": "bool"
        },
        {
          "internalType": "uint256",
          "name": "createdAt",
          "type": "uint256"
        },
        {
          "internalType": "uint256",
          "name": "lastUpdated",
          "type": "uint256"
        }
      ],
      "stateMutability": "view",
      "type": "function"
    },
    {
      "inputs": [],
      "name": "owner",
      "outputs": [
        {
          "internalType": "address",
          "name": "",
          "type": "address"
        }
      ],
      "stateMutability": "view",
      "type": "function"
    },
    {
      "inputs": [],
      "name": "renounceOwnership",
      "outputs": [],
      "stateMutability": "nonpayable",
      "type": "function"
    },
    {
      "inputs": [
        {
          "internalType": "address",
          "name": "newOwner",
          "type": "address"
        }
      ],
      "name": "transferOwnership",
      "outputs": [],
      "stateMutability": "nonpayable",
      "type": "function"
    },
    {
      "inputs": [
        {
          "internalType": "string",
          "name": "",
          "type": "string"
        }
      ],
      "name": "universalIdToAddress",
      "outputs": [
        {
          "internalType": "address",
          "name": "",
          "type": "address"
        }
      ],
      "stateMutability": "view",
      "type": "function"
    },
    {
      "inputs": [
        {
          "internalType": "string",
          "name": "_profileHash",
          "type": "string"
        }
      ],
      "name": "updateProfile",
      "outputs": [],
      "stateMutability": "nonpayable",
      "type": "function"
    },
    {
      "inputs": [
        {
          "internalType": "address",
          "name": "_user",
          "type": "address"
        }
      ],
      "name": "verifyProfile",
      "outputs": [],
      "stateMutability": "nonpayable",
      "type": "function"
    }
  ],
  "bytecode": "0x608060405234801561001057600080fd5b50338061003757604051631e4fbdf760e01b81526000600482015260240160405180910390fd5b6100408161004a565b506001805561009a565b600080546001600160a01b038381166001600160a01b0319831681178455604051919092169283917f8be0079c531659141344cd1fd0a4f28419497f9722a3daafe3b4186f6b6457e09190a35050565b610e90806100a96000396000f3fe608060405234801561001057600080fd5b506004361061009d5760003560e01c80638da5cb5b116100665780638da5cb5b14610121578063dbac26e914610146578063dc4eb1a514610179578063dfaef659146101ad578063f2fde38b146101c057600080fd5b80629299e3146100a25780630f53a470146100b757806317321512146100e057806335af4f87146100f3578063715018a614610119575b600080fd5b6100b56100b0366004610ae5565b6101d3565b005b6100ca6100c5366004610b22565b6102a3565b6040516100d79190610ba2565b60405180910390f35b6100b56100ee366004610c1f565b610471565b610106610101366004610b22565b610733565b6040516100d79796959493929190610c83565b6100b5610886565b6000546001600160a01b03165b6040516001600160a01b0390911681526020016100d7565b610169610154366004610b22565b60046020526000908152604090205460ff1681565b60405190151581526020016100d7565b61012e610187366004610ae5565b80516020818301810180516003825292820191909301209152546001600160a01b031681565b6100b56101bb366004610b22565b61089a565b6100b56101ce366004610b22565b61095d565b336000818152600260205260409020600401546102305760405162461bcd60e51b8152602060048201526016602482015275141c9bd99a5b1948191bd95cc81b9bdd08195e1a5cdd60521b60448201526064015b60405180910390fd5b33600090815260026020526040902060010161024c8382610d5c565b50336000818152600260205260409081902042600590910181905590517fdcb94c0b2c025b0736b4b62b1c595f2ca7ad4c711eada6026d477e87de9cca089161029791869190610e1c565b60405180910390a25050565b6102e76040518060e0016040528060608152602001606081526020016000815260200160001515815260200160001515815260200160008152602001600081525090565b6001600160a01b03821660009081526002602052604090819020815160e0810190925280548290829061031990610cd3565b80601f016020809104026020016040519081016040528092919081815260200182805461034590610cd3565b80156103925780601f1061036757610100808354040283529160200191610392565b820191906000526020600020905b81548152906001019060200180831161037557829003601f168201915b505050505081526020016001820180546103ab90610cd3565b80601f01602080910402602001604051908101604052809291908181526020018280546103d790610cd3565b80156104245780601f106103f957610100808354040283529160200191610424565b820191906000526020600020905b81548152906001019060200180831161040757829003601f168201915b505050918352505060028201546020820152600382015460ff8082161515604084015261010090910416151560608201526004820154608082015260059091015460a09091015292915050565b61047961099b565b3360008181526004602052604090205460ff16156104cf5760405162461bcd60e51b8152602060048201526013602482015272155cd95c881a5cc8189b1858dadb1a5cdd1959606a1b6044820152606401610227565b60008351116105205760405162461bcd60e51b815260206004820152601c60248201527f556e6976657273616c2049442063616e6e6f7420626520656d707479000000006044820152606401610227565b33600090815260026020526040902060040154156105795760405162461bcd60e51b815260206004820152601660248201527550726f66696c6520616c72656164792065786973747360501b6044820152606401610227565b60006001600160a01b03166003846040516105949190610e3e565b908152604051908190036020019020546001600160a01b0316146105ef5760405162461bcd60e51b81526020600482015260126024820152712ab734bb32b939b0b61024a2103a30b5b2b760711b6044820152606401610227565b6040805160e08101825284815260208082018590526101f482840152600060608301819052600160808401524260a0840181905260c0840152338152600290915291909120815181906106429082610d5c565b50602082015160018201906106579082610d5c565b506040828101516002830155606083015160038084018054608087015115156101000261ff00199415159490941661ffff19909116179290921790915560a0840151600484015560c090930151600590920191909155513391906106bc908690610e3e565b90815260405190819003602001812080546001600160a01b03939093166001600160a01b03199093169290921790915533907f25dbccf9f713a2b16ed5d635585b4778d0d7e66b7b631871e668a694131e5fad9061071d9086904290610e1c565b60405180910390a25061072f60018055565b5050565b60026020526000908152604090208054819061074e90610cd3565b80601f016020809104026020016040519081016040528092919081815260200182805461077a90610cd3565b80156107c75780601f1061079c576101008083540402835291602001916107c7565b820191906000526020600020905b8154815290600101906020018083116107aa57829003601f168201915b5050505050908060010180546107dc90610cd3565b80601f016020809104026020016040519081016040528092919081815260200182805461080890610cd3565b80156108555780601f1061082a57610100808354040283529160200191610855565b820191906000526020600020905b81548152906001019060200180831161083857829003601f168201915b5050506002840154600385015460048601546005909601549495919460ff8083169550610100909204909116925087565b61088e6109c5565b61089860006109f2565b565b6108a26109c5565b6001600160a01b03811660009081526002602052604090206004015481906109055760405162461bcd60e51b8152602060048201526016602482015275141c9bd99a5b1948191bd95cc81b9bdd08195e1a5cdd60521b6044820152606401610227565b6001600160a01b03821660008181526002602052604090819020600301805460ff19166001179055517fc0717e006bb633cb129f18453a1dd090cb674eeb4e794327428cbc35919757d9906102979042815260200190565b6109656109c5565b6001600160a01b03811661098f57604051631e4fbdf760e01b815260006004820152602401610227565b610998816109f2565b50565b6002600154036109be57604051633ee5aeb560e01b815260040160405180910390fd5b6002600155565b6000546001600160a01b031633146108985760405163118cdaa760e01b8152336004820152602401610227565b600080546001600160a01b038381166001600160a01b0319831681178455604051919092169283917f8be0079c531659141344cd1fd0a4f28419497f9722a3daafe3b4186f6b6457e09190a35050565b634e487b7160e01b600052604160045260246000fd5b600082601f830112610a6957600080fd5b813567ffffffffffffffff80821115610a8457610a84610a42565b604051601f8301601f19908116603f01168101908282118183101715610aac57610aac610a42565b81604052838152866020858801011115610ac557600080fd5b836020870160208301376000602085830101528094505050505092915050565b600060208284031215610af757600080fd5b813567ffffffffffffffff811115610b0e57600080fd5b610b1a84828501610a58565b949350505050565b600060208284031215610b3457600080fd5b81356001600160a01b0381168114610b4b57600080fd5b9392505050565b60005b83811015610b6d578181015183820152602001610b55565b50506000910152565b60008151808452610b8e816020860160208601610b52565b601f01601f19169290920160200192915050565b602081526000825160e06020840152610bbf610100840182610b76565b90506020840151601f19848303016040850152610bdc8282610b76565b915050604084015160608401526060840151151560808401526080840151151560a084015260a084015160c084015260c084015160e08401528091505092915050565b60008060408385031215610c3257600080fd5b823567ffffffffffffffff80821115610c4a57600080fd5b610c5686838701610a58565b93506020850135915080821115610c6c57600080fd5b50610c7985828601610a58565b9150509250929050565b60e081526000610c9660e083018a610b76565b8281036020840152610ca8818a610b76565b604084019890985250509315156060850152911515608084015260a083015260c09091015292915050565b600181811c90821680610ce757607f821691505b602082108103610d0757634e487b7160e01b600052602260045260246000fd5b50919050565b601f821115610d5757600081815260208120601f850160051c81016020861015610d345750805b601f850160051c820191505b81811015610d5357828155600101610d40565b5050505b505050565b815167ffffffffffffffff811115610d7657610d76610a42565b610d8a81610d848454610cd3565b84610d0d565b602080601f831160018114610dbf5760008415610da75750858301515b600019600386901b1c1916600185901b178555610d53565b600085815260208120601f198616915b82811015610dee57888601518255948401946001909101908401610dcf565b5085821015610e0c5787850151600019600388901b60f8161c191681555b5050505050600190811b01905550565b604081526000610e2f6040830185610b76565b90508260208301529392505050565b60008251610e50818460208701610b52565b919091019291505056fea26469706673582212203a755c7d86cccf9fe018cd2bf93acc4ea2c245623282e2033b128478efd8c89e64736f6c63430008140033",
  "linkReferences": {},
  "deployedLinkReferences": {}
}