{
  "_format": "hh-sol-artifact-1",
  "contractName": "SkillBadges",
  "sourceName": "contracts/SkillBadges.sol",
  "abi": [
    {
      "inputs": [],
      "stateMutability": "nonpayable",
      "type": "constructor"
    },
    {
      "inputs": [
        {
          "internalType": "address",
          "name": "sender",
          "type": "address"
        },
        {
          "internalType": "uint256",
          "name": "tokenId",
          "type": "uint256"
        },
        {
          "internalType": "address",
          "name": "owner",
          "type": "address"
        }
      ],
      "name": "ERC721IncorrectOwner",
      "type": "error"
    },
    {
      "inputs": [
        {
          "internalType": "address",
          "name": "operator",
          "type": "address"
        },
        {
          "internalType": "uint256",
          "name": "tokenId",
          "type": "uint256"
        }
      ],
      "name": "ERC721InsufficientApproval",
      "type": "error"
    },
    {
      "inputs": [
        {
          "internalType": "address",
          "name": "approver",
          "type": "address"
        }
      ],
      "name": "ERC721InvalidApprover",
      "type": "error"
    },
    {
      "inputs": [
        {
          "internalType": "address",
          "name": "operator",
          "type": "address"
        }
      ],
      "name": "ERC721InvalidOperator",
      "type": "error"
    },
    {
      "inputs": [
        {
          "internalType": "address",
          "name": "owner",
          "type": "address"
        }
      ],
      "name": "ERC721InvalidOwner",
      "type": "error"
    },
    {
      "inputs": [
        {
          "internalType": "address",
          "name": "receiver",
          "type": "address"
        }
      ],
      "name": "ERC721InvalidReceiver",
      "type": "error"
    },
    {
      "inputs": [
        {
          "internalType": "address",
          "name": "sender",
          "type": "address"
        }
      ],
      "name": "ERC721InvalidSender",
      "type": "error"
    },
    {
      "inputs": [
        {
          "internalType": "uint256",
          "name": "tokenId",
          "type": "uint256"
        }
      ],
      "name": "ERC721NonexistentToken",
      "type": "error"
    },
    {
      "inputs": [
        {
          "internalType": "address",
          "name": "owner",
          "type": "address"
        }
      ],
      "name": "OwnableInvalidOwner",
      "type": "error"
    },
    {
      "inputs": [
        {
          "internalType": "address",
          "name": "account",
          "type": "address"
        }
      ],
      "name": "OwnableUnauthorizedAccount",
      "type": "error"
    },
    {
      "anonymous": false,
      "inputs": [
        {
          "indexed": true,
          "internalType": "address",
          "name": "owner",
          "type": "address"
        },
        {
          "indexed": true,
          "internalType": "address",
          "name": "approved",
          "type": "address"
        },
        {
          "indexed": true,
          "internalType": "uint256",
          "name": "tokenId",
          "type": "uint256"
        }
      ],
      "name": "Approval",
      "type": "event"
    },
    {
      "anonymous": false,
      "inputs": [
        {
          "indexed": true,
          "internalType": "address",
          "name": "owner",
          "type": "address"
        },
        {
          "indexed": true,
          "internalType": "address",
          "name": "operator",
          "type": "address"
        },
        {
          "indexed": false,
          "internalType": "bool",
          "name": "approved",
          "type": "bool"
        }
      ],
      "name": "ApprovalForAll",
      "type": "event"
    },
    {
      "anonymous": false,
      "inputs": [
        {
          "indexed": true,
          "internalType": "address",
          "name": "to",
          "type": "address"
        },
        {
          "indexed": true,
          "internalType": "uint256",
          "name": "tokenId",
          "type": "uint256"
        },
        {
          "indexed": false,
          "internalType": "string",
          "name": "skillName",
          "type": "string"
        }
      ],
      "name": "BadgeMinted",
      "type": "event"
    },
    {
      "anonymous": false,
      "inputs": [
        {
          "indexed": true,
          "internalType": "address",
          "name": "previousOwner",
          "type": "address"
        },
        {
          "indexed": true,
          "internalType": "address",
          "name": "newOwner",
          "type": "address"
        }
      ],
      "name": "OwnershipTransferred",
      "type": "event"
    },
    {
      "anonymous": false,
      "inputs": [
        {
          "indexed": true,
          "internalType": "address",
          "name": "from",
          "type": "address"
        },
        {
          "indexed": true,
          "internalType": "address",
          "name": "to",
          "type": "address"
        },
        {
          "indexed": true,
          "internalType": "uint256",
          "name": "tokenId",
          "type": "uint256"
        }
      ],
      "name": "Transfer",
      "type": "event"
    },
    {
      "inputs": [
        {
          "internalType": "address",
          "name": "to",
          "type": "address"
        },
        {
          "internalType": "uint256",
          "name": "tokenId",
          "type": "uint256"
        }
      ],
      "name": "approve",
      "outputs": [],
      "stateMutability": "nonpayable",
      "type": "function"
    },
    {
      "inputs": [
        {
          "internalType": "uint256",
          "name": "",
          "type": "uint256"
        }
      ],
      "name": "badges",
      "outputs": [
        {
          "internalType": "string",
          "name": "skillName",
          "type": "string"
        },
        {
          "internalType": "string",
          "name": "category",
          "type": "string"
        },
        {
          "internalType": "string",
          "name": "metadataURI",
          "type": "string"
        },
        {
          "internalType": "uint256",
          "name": "issuedAt",
          "type": "uint256"
        },
        {
          "internalType": "bool",
          "name": "isVerified",
          "type": "bool"
        }
      ],
      "stateMutability": "view",
      "type": "function"
    },
    {
      "inputs": [
        {
          "internalType": "address",
          "name": "owner",
          "type": "address"
        }
      ],
      "name": "balanceOf",
      "outputs": [
        {
          "internalType": "uint256",
          "name": "",
          "type": "uint256"
        }
      ],
      "stateMutability": "view",
      "type": "function"
    },
    {
      "inputs": [
        {
          "internalType": "uint256",
          "name": "tokenId",
          "type": "uint256"
        }
      ],
      "name": "getApproved",
      "outputs": [
        {
          "internalType": "address",
          "name": "",
          "type": "address"
        }
      ],
      "stateMutability": "view",
      "type": "function"
    },
    {
      "inputs": [
        {
          "internalType": "uint256",
          "name": "tokenId",
          "type": "uint256"
        }
      ],
      "name": "getBadgeDetails",
      "outputs": [
        {
          "components": [
            {
              "internalType": "string",
              "name": "skillName",
              "type": "string"
            },
            {
              "internalType": "string",
              "name": "category",
              "type": "string"
            },
            {
              "internalType": "string",
              "name": "metadataURI",
              "type": "string"
            },
            {
              "internalType": "uint256",
              "name": "issuedAt",
              "type": "uint256"
            },
            {
              "internalType": "bool",
              "name": "isVerified",
              "type": "bool"
            }
          ],
          "internalType": "struct SkillBadges.Badge",
          "name": "",
          "type": "tuple"
        }
      ],
      "stateMutability": "view",
      "type": "function"
    },
    {
      "inputs": [
        {
          "internalType": "address",
          "name": "user",
          "type": "address"
        }
      ],
      "name": "getUserBadges",
      "outputs": [
        {
          "internalType": "uint256[]",
          "name": "",
          "type": "uint256[]"
        }
      ],
      "stateMutability": "view",
      "type": "function"
    },
    {
      "inputs": [
        {
          "internalType": "address",
          "name": "owner",
          "type": "address"
        },
        {
          "internalType": "address",
          "name": "operator",
          "type": "address"
        }
      ],
      "name": "isApprovedForAll",
      "outputs": [
        {
          "internalType": "bool",
          "name": "",
          "type": "bool"
        }
      ],
      "stateMutability": "view",
      "type": "function"
    },
    {
      "inputs": [
        {
          "internalType": "address",
          "name": "to",
          "type": "address"
        },
        {
          "internalType": "string",
          "name": "skillName",
          "type": "string"
        },
        {
          "internalType": "string",
          "name": "category",
          "type": "string"
        },
        {
          "internalType": "string",
          "name": "metadataURI",
          "type": "string"
        }
      ],
      "name": "mintBadge",
      "outputs": [
        {
          "internalType": "uint256",
          "name": "",
          "type": "uint256"
        }
      ],
      "stateMutability": "nonpayable",
      "type": "function"
    },
    {
      "inputs": [],
      "name": "name",
      "outputs": [
        {
          "internalType": "string",
          "name": "",
          "type": "string"
        }
      ],
      "stateMutability": "view",
      "type": "function"
    },
    {
      "inputs": [],
      "name": "owner",
      "outputs": [
        {
          "internalType": "address",
          "name": "",
          "type": "address"
        }
      ],
      "stateMutability": "view",
      "type": "function"
    },
    {
      "inputs": [
        {
          "internalType": "uint256",
          "name": "tokenId",
          "type": "uint256"
        }
      ],
      "name": "ownerOf",
      "outputs": [
        {
          "internalType": "address",
          "name": "",
          "type": "address"
        }
      ],
      "stateMutability": "view",
      "type": "function"
    },
    {
      "inputs": [],
      "name": "renounceOwnership",
      "outputs": [],
      "stateMutability": "nonpayable",
      "type": "function"
    },
    {
      "inputs": [
        {
          "internalType": "address",
          "name": "from",
          "type": "address"
        },
        {
          "internalType": "address",
          "name": "to",
          "type": "address"
        },
        {
          "internalType": "uint256",
          "name": "tokenId",
          "type": "uint256"
        }
      ],
      "name": "safeTransferFrom",
      "outputs": [],
      "stateMutability": "nonpayable",
      "type": "function"
    },
    {
      "inputs": [
        {
          "internalType": "address",
          "name": "from",
          "type": "address"
        },
        {
          "internalType": "address",
          "name": "to",
          "type": "address"
        },
        {
          "internalType": "uint256",
          "name": "tokenId",
          "type": "uint256"
        },
        {
          "internalType": "bytes",
          "name": "data",
          "type": "bytes"
        }
      ],
      "name": "safeTransferFrom",
      "outputs": [],
      "stateMutability": "nonpayable",
      "type": "function"
    },
    {
      "inputs": [
        {
          "internalType": "address",
          "name": "operator",
          "type": "address"
        },
        {
          "internalType": "bool",
          "name": "approved",
          "type": "bool"
        }
      ],
      "name": "setApprovalForAll",
      "outputs": [],
      "stateMutability": "nonpayable",
      "type": "function"
    },
    {
      "inputs": [
        {
          "internalType": "bytes4",
          "name": "interfaceId",
          "type": "bytes4"
        }
      ],
      "name": "supportsInterface",
      "outputs": [
        {
          "internalType": "bool",
          "name": "",
          "type": "bool"
        }
      ],
      "stateMutability": "view",
      "type": "function"
    },
    {
      "inputs": [],
      "name": "symbol",
      "outputs": [
        {
          "internalType": "string",
          "name": "",
          "type": "string"
        }
      ],
      "stateMutability": "view",
      "type": "function"
    },
    {
      "inputs": [
        {
          "internalType": "uint256",
          "name": "tokenId",
          "type": "uint256"
        }
      ],
      "name": "tokenURI",
      "outputs": [
        {
          "internalType": "string",
          "name": "",
          "type": "string"
        }
      ],
      "stateMutability": "view",
      "type": "function"
    },
    {
      "inputs": [
        {
          "internalType": "address",
          "name": "from",
          "type": "address"
        },
        {
          "internalType": "address",
          "name": "to",
          "type": "address"
        },
        {
          "internalType": "uint256",
          "name": "tokenId",
          "type": "uint256"
        }
      ],
      "name": "transferFrom",
      "outputs": [],
      "stateMutability": "nonpayable",
      "type": "function"
    },
    {
      "inputs": [
        {
          "internalType": "address",
          "name": "newOwner",
          "type": "address"
        }
      ],
      "name": "transferOwnership",
      "outputs": [],
      "stateMutability": "nonpayable",
      "type": "function"
    },
    {
      "inputs": [
        {
          "internalType": "address",
          "name": "",
          "type": "address"
        },
        {
          "internalType": "uint256",
          "name": "",
          "type": "uint256"
        }
      ],
      "name": "userBadges",
      "outputs": [
        {
          "internalType": "uint256",
          "name": "",
          "type": "uint256"
        }
      ],
      "stateMutability": "view",
      "type": "function"
    }
  ],
  "bytecode": "0x60806040523480156200001157600080fd5b50336040518060400160405280601681526020017f4576656e74466c657820536b696c6c20426164676573000000000000000000008152506040518060400160405280600481526020016322a329a160e11b8152508160009081620000779190620001c6565b506001620000868282620001c6565b5050506001600160a01b038116620000b857604051631e4fbdf760e01b81526000600482015260240160405180910390fd5b620000c381620000cf565b50600060075562000292565b600680546001600160a01b038381166001600160a01b0319831681179093556040519116919082907f8be0079c531659141344cd1fd0a4f28419497f9722a3daafe3b4186f6b6457e090600090a35050565b634e487b7160e01b600052604160045260246000fd5b600181811c908216806200014c57607f821691505b6020821081036200016d57634e487b7160e01b600052602260045260246000fd5b50919050565b601f821115620001c157600081815260208120601f850160051c810160208610156200019c5750805b601f850160051c820191505b81811015620001bd57828155600101620001a8565b5050505b505050565b81516001600160401b03811115620001e257620001e262000121565b620001fa81620001f3845462000137565b8462000173565b602080601f831160018114620002325760008415620002195750858301515b600019600386901b1c1916600185901b178555620001bd565b600085815260208120601f198616915b82811015620002635788860151825594840194600190910190840162000242565b5085821015620002825787850151600019600388901b60f8161c191681555b5050505050600190811b01905550565b611afe80620002a26000396000f3fe608060405234801561001057600080fd5b50600436106101375760003560e01c8063715018a6116100b8578063b88d4fde1161007c578063b88d4fde146102ab578063c2ed630e146102be578063c87b56dd146102d1578063df91cc23146102e4578063e985e9c5146102f7578063f2fde38b1461030a57600080fd5b8063715018a6146102535780638da5cb5b1461025b57806395d89b411461026c57806398e36d8b14610274578063a22cb4651461029857600080fd5b80632950c4bd116100ff5780632950c4bd146101cc57806337c245fe146101ec57806342842e0e1461020c5780636352211e1461021f57806370a082311461023257600080fd5b806301ffc9a71461013c57806306fdde0314610164578063081812fc14610179578063095ea7b3146101a457806323b872dd146101b9575b600080fd5b61014f61014a36600461146c565b61031d565b60405190151581526020015b60405180910390f35b61016c61036f565b60405161015b91906114d9565b61018c6101873660046114ec565b610401565b6040516001600160a01b03909116815260200161015b565b6101b76101b2366004611521565b61042a565b005b6101b76101c736600461154b565b610439565b6101df6101da3660046114ec565b6104c9565b60405161015b9190611587565b6101ff6101fa366004611602565b610743565b60405161015b919061161d565b6101b761021a36600461154b565b6107af565b61018c61022d3660046114ec565b6107cf565b610245610240366004611602565b6107da565b60405190815260200161015b565b6101b7610822565b6006546001600160a01b031661018c565b61016c610836565b6102876102823660046114ec565b610845565b60405161015b959493929190611661565b6101b76102a63660046116b4565b610a0f565b6101b76102b936600461177c565b610a1a565b6102456102cc366004611818565b610a32565b61016c6102df3660046114ec565b610b66565b6102456102f2366004611521565b610bdb565b61014f6103053660046118a5565b610c0c565b6101b7610318366004611602565b610c3a565b60006001600160e01b031982166380ac58cd60e01b148061034e57506001600160e01b03198216635b5e139f60e01b145b8061036957506301ffc9a760e01b6001600160e01b03198316145b92915050565b60606000805461037e906118d8565b80601f01602080910402602001604051908101604052809291908181526020018280546103aa906118d8565b80156103f75780601f106103cc576101008083540402835291602001916103f7565b820191906000526020600020905b8154815290600101906020018083116103da57829003601f168201915b5050505050905090565b600061040c82610c78565b506000828152600460205260409020546001600160a01b0316610369565b610435828233610cb1565b5050565b6001600160a01b03821661046857604051633250574960e11b8152600060048201526024015b60405180910390fd5b6000610475838333610cbe565b9050836001600160a01b0316816001600160a01b0316146104c3576040516364283d7b60e01b81526001600160a01b038086166004830152602482018490528216604482015260640161045f565b50505050565b6104fd6040518060a00160405280606081526020016060815260200160608152602001600081526020016000151581525090565b6000610508836107cf565b6001600160a01b0316036105555760405162461bcd60e51b815260206004820152601460248201527310985919d948191bd95cc81b9bdd08195e1a5cdd60621b604482015260640161045f565b60008281526008602052604090819020815160a0810190925280548290829061057d906118d8565b80601f01602080910402602001604051908101604052809291908181526020018280546105a9906118d8565b80156105f65780601f106105cb576101008083540402835291602001916105f6565b820191906000526020600020905b8154815290600101906020018083116105d957829003601f168201915b5050505050815260200160018201805461060f906118d8565b80601f016020809104026020016040519081016040528092919081815260200182805461063b906118d8565b80156106885780601f1061065d57610100808354040283529160200191610688565b820191906000526020600020905b81548152906001019060200180831161066b57829003601f168201915b505050505081526020016002820180546106a1906118d8565b80601f01602080910402602001604051908101604052809291908181526020018280546106cd906118d8565b801561071a5780601f106106ef5761010080835404028352916020019161071a565b820191906000526020600020905b8154815290600101906020018083116106fd57829003601f168201915b50505091835250506003820154602082015260049091015460ff16151560409091015292915050565b6001600160a01b0381166000908152600960209081526040918290208054835181840281018401909452808452606093928301828280156107a357602002820191906000526020600020905b81548152602001906001019080831161078f575b50505050509050919050565b6107ca83838360405180602001604052806000815250610a1a565b505050565b600061036982610c78565b60006001600160a01b038216610806576040516322718ad960e21b81526000600482015260240161045f565b506001600160a01b031660009081526003602052604090205490565b61082a610d42565b6108346000610d6f565b565b60606001805461037e906118d8565b600860205260009081526040902080548190610860906118d8565b80601f016020809104026020016040519081016040528092919081815260200182805461088c906118d8565b80156108d95780601f106108ae576101008083540402835291602001916108d9565b820191906000526020600020905b8154815290600101906020018083116108bc57829003601f168201915b5050505050908060010180546108ee906118d8565b80601f016020809104026020016040519081016040528092919081815260200182805461091a906118d8565b80156109675780601f1061093c57610100808354040283529160200191610967565b820191906000526020600020905b81548152906001019060200180831161094a57829003601f168201915b50505050509080600201805461097c906118d8565b80601f01602080910402602001604051908101604052809291908181526020018280546109a8906118d8565b80156109f55780601f106109ca576101008083540402835291602001916109f5565b820191906000526020600020905b8154815290600101906020018083116109d857829003601f168201915b50505050600383015460049093015491929160ff16905085565b610435338383610dc1565b610a25848484610439565b6104c33385858585610e60565b6000610a3c610d42565b600780549081906000610a4e83611912565b90915550506040805160a081018252868152602080820187905281830186905242606083015260006080830181905284815260089091529190912081518190610a97908261197f565b5060208201516001820190610aac908261197f565b5060408201516002820190610ac1908261197f565b50606082015160038201556080909101516004909101805460ff19169115159190911790556001600160a01b038616600090815260096020908152604082208054600181018255908352912001819055610b1b8682610f8b565b80866001600160a01b03167f6854c057dc92416510857b3daad5434a4202a4d192cf0f85d496d91974efaea387604051610b5591906114d9565b60405180910390a395945050505050565b6060610b7182610c78565b506000610b8960408051602081019091526000815290565b90506000815111610ba95760405180602001604052806000815250610bd4565b80610bb384610fa5565b604051602001610bc4929190611a3f565b6040516020818303038152906040525b9392505050565b60096020528160005260406000208181548110610bf757600080fd5b90600052602060002001600091509150505481565b6001600160a01b03918216600090815260056020908152604080832093909416825291909152205460ff1690565b610c42610d42565b6001600160a01b038116610c6c57604051631e4fbdf760e01b81526000600482015260240161045f565b610c7581610d6f565b50565b6000818152600260205260408120546001600160a01b03168061036957604051637e27328960e01b81526004810184905260240161045f565b6107ca8383836001611038565b6000828152600260205260408120546001600160a01b0316801580610cea57506001600160a01b038516155b610d2e5760405162461bcd60e51b815260206004820152601560248201527410985919d95cc8185c99481cdbdd5b0b589bdd5b99605a1b604482015260640161045f565b610d3985858561113e565b95945050505050565b6006546001600160a01b031633146108345760405163118cdaa760e01b815233600482015260240161045f565b600680546001600160a01b038381166001600160a01b0319831681179093556040519116919082907f8be0079c531659141344cd1fd0a4f28419497f9722a3daafe3b4186f6b6457e090600090a35050565b6001600160a01b038216610df357604051630b61174360e31b81526001600160a01b038316600482015260240161045f565b6001600160a01b03838116600081815260056020908152604080832094871680845294825291829020805460ff191686151590811790915591519182527f17307eab39ab6107e8899845ad3d59bd9653f200f220920489ca2b5937696c31910160405180910390a3505050565b6001600160a01b0383163b15610f8457604051630a85bd0160e11b81526001600160a01b0384169063150b7a0290610ea2908890889087908790600401611a6e565b6020604051808303816000875af1925050508015610edd575060408051601f3d908101601f19168201909252610eda91810190611aab565b60015b610f46573d808015610f0b576040519150601f19603f3d011682016040523d82523d6000602084013e610f10565b606091505b508051600003610f3e57604051633250574960e11b81526001600160a01b038516600482015260240161045f565b805160208201fd5b6001600160e01b03198116630a85bd0160e11b14610f8257604051633250574960e11b81526001600160a01b038516600482015260240161045f565b505b5050505050565b610435828260405180602001604052806000815250611237565b60606000610fb28361124f565b600101905060008167ffffffffffffffff811115610fd257610fd26116f0565b6040519080825280601f01601f191660200182016040528015610ffc576020820181803683370190505b5090508181016020015b600019016f181899199a1a9b1b9c1cb0b131b232b360811b600a86061a8153600a850494508461100657509392505050565b808061104c57506001600160a01b03821615155b1561110e57600061105c84610c78565b90506001600160a01b038316158015906110885750826001600160a01b0316816001600160a01b031614155b801561109b57506110998184610c0c565b155b156110c45760405163a9fbf51f60e01b81526001600160a01b038416600482015260240161045f565b811561110c5783856001600160a01b0316826001600160a01b03167f8c5be1e5ebec7d5bd14f71427d1e84f3dd0314c0f7b2291e5b200ac8c7c3b92560405160405180910390a45b505b5050600090815260046020526040902080546001600160a01b0319166001600160a01b0392909216919091179055565b6000828152600260205260408120546001600160a01b039081169083161561116b5761116b818486611327565b6001600160a01b038116156111a957611188600085600080611038565b6001600160a01b038116600090815260036020526040902080546000190190555b6001600160a01b038516156111d8576001600160a01b0385166000908152600360205260409020805460010190555b60008481526002602052604080822080546001600160a01b0319166001600160a01b0389811691821790925591518793918516917fddf252ad1be2c89b69c2b068fc378daa952ba7f163c4a11628f55a4df523b3ef91a4949350505050565b611241838361138b565b6107ca336000858585610e60565b60008072184f03e93ff9f4daa797ed6e38ed64bf6a1f0160401b831061128e5772184f03e93ff9f4daa797ed6e38ed64bf6a1f0160401b830492506040015b6d04ee2d6d415b85acef810000000083106112ba576d04ee2d6d415b85acef8100000000830492506020015b662386f26fc1000083106112d857662386f26fc10000830492506010015b6305f5e10083106112f0576305f5e100830492506008015b612710831061130457612710830492506004015b60648310611316576064830492506002015b600a83106103695760010192915050565b6113328383836113f0565b6107ca576001600160a01b03831661136057604051637e27328960e01b81526004810182905260240161045f565b60405163177e802f60e01b81526001600160a01b03831660048201526024810182905260440161045f565b6001600160a01b0382166113b557604051633250574960e11b81526000600482015260240161045f565b60006113c383836000610cbe565b90506001600160a01b038116156107ca576040516339e3563760e11b81526000600482015260240161045f565b60006001600160a01b0383161580159061144e5750826001600160a01b0316846001600160a01b0316148061142a575061142a8484610c0c565b8061144e57506000828152600460205260409020546001600160a01b038481169116145b949350505050565b6001600160e01b031981168114610c7557600080fd5b60006020828403121561147e57600080fd5b8135610bd481611456565b60005b838110156114a457818101518382015260200161148c565b50506000910152565b600081518084526114c5816020860160208601611489565b601f01601f19169290920160200192915050565b602081526000610bd460208301846114ad565b6000602082840312156114fe57600080fd5b5035919050565b80356001600160a01b038116811461151c57600080fd5b919050565b6000806040838503121561153457600080fd5b61153d83611505565b946020939093013593505050565b60008060006060848603121561156057600080fd5b61156984611505565b925061157760208501611505565b9150604084013590509250925092565b602081526000825160a060208401526115a360c08401826114ad565b90506020840151601f19808584030160408601526115c183836114ad565b92506040860151915080858403016060860152506115df82826114ad565b915050606084015160808401526080840151151560a08401528091505092915050565b60006020828403121561161457600080fd5b610bd482611505565b6020808252825182820181905260009190848201906040850190845b8181101561165557835183529284019291840191600101611639565b50909695505050505050565b60a08152600061167460a08301886114ad565b828103602084015261168681886114ad565b9050828103604084015261169a81876114ad565b606084019590955250509015156080909101529392505050565b600080604083850312156116c757600080fd5b6116d083611505565b9150602083013580151581146116e557600080fd5b809150509250929050565b634e487b7160e01b600052604160045260246000fd5b600067ffffffffffffffff80841115611721576117216116f0565b604051601f8501601f19908116603f01168101908282118183101715611749576117496116f0565b8160405280935085815286868601111561176257600080fd5b858560208301376000602087830101525050509392505050565b6000806000806080858703121561179257600080fd5b61179b85611505565b93506117a960208601611505565b925060408501359150606085013567ffffffffffffffff8111156117cc57600080fd5b8501601f810187136117dd57600080fd5b6117ec87823560208401611706565b91505092959194509250565b600082601f83011261180957600080fd5b610bd483833560208501611706565b6000806000806080858703121561182e57600080fd5b61183785611505565b9350602085013567ffffffffffffffff8082111561185457600080fd5b611860888389016117f8565b9450604087013591508082111561187657600080fd5b611882888389016117f8565b9350606087013591508082111561189857600080fd5b506117ec878288016117f8565b600080604083850312156118b857600080fd5b6118c183611505565b91506118cf60208401611505565b90509250929050565b600181811c908216806118ec57607f821691505b60208210810361190c57634e487b7160e01b600052602260045260246000fd5b50919050565b60006001820161193257634e487b7160e01b600052601160045260246000fd5b5060010190565b601f8211156107ca57600081815260208120601f850160051c810160208610156119605750805b601f850160051c820191505b81811015610f825782815560010161196c565b815167ffffffffffffffff811115611999576119996116f0565b6119ad816119a784546118d8565b84611939565b602080601f8311600181146119e257600084156119ca5750858301515b600019600386901b1c1916600185901b178555610f82565b600085815260208120601f198616915b82811015611a11578886015182559484019460019091019084016119f2565b5085821015611a2f5787850151600019600388901b60f8161c191681555b5050505050600190811b01905550565b60008351611a51818460208801611489565b835190830190611a65818360208801611489565b01949350505050565b6001600160a01b0385811682528416602082015260408101839052608060608201819052600090611aa1908301846114ad565b9695505050505050565b600060208284031215611abd57600080fd5b8151610bd48161145656fea26469706673582212203a2a22e50ff87ca83551944ffab7fd02dd041f120ca4222b05a775ce2b9bead264736f6c63430008140033",
  "linkReferences": {},
  "deployedLinkReferences": {}
}